{
    "_format": "hh-sol-artifact-1",
    "contractName": "WavePortal",
    "sourceName": "contracts/WavePortal.sol",
    "abi": [
        {
            "inputs": [],
            "stateMutability": "payable",
            "type": "constructor"
        },
        {
            "anonymous": false,
            "inputs": [
                {
                    "indexed": true,
                    "internalType": "address",
                    "name": "from",
                    "type": "address"
                },
                {
                    "indexed": false,
                    "internalType": "uint256",
                    "name": "timestamp",
                    "type": "uint256"
                },
                {
                    "indexed": false,
                    "internalType": "string",
                    "name": "message",
                    "type": "string"
                }
            ],
            "name": "NewWave",
            "type": "event"
        },
        {
            "inputs": [
                {
                    "internalType": "address",
                    "name": "",
                    "type": "address"
                }
            ],
            "name": "amounts",
            "outputs": [
                {
                    "internalType": "uint256",
                    "name": "",
                    "type": "uint256"
                }
            ],
            "stateMutability": "view",
            "type": "function"
        },
        {
            "inputs": [],
            "name": "getAllWaves",
            "outputs": [
                {
                    "components": [
                        {
                            "internalType": "address",
                            "name": "waver",
                            "type": "address"
                        },
                        {
                            "internalType": "string",
                            "name": "message",
                            "type": "string"
                        },
                        {
                            "internalType": "uint256",
                            "name": "timestamp",
                            "type": "uint256"
                        }
                    ],
                    "internalType": "struct WavePortal.Wave[]",
                    "name": "",
                    "type": "tuple[]"
                }
            ],
            "stateMutability": "view",
            "type": "function"
        },
        {
            "inputs": [],
            "name": "getAmounts",
            "outputs": [],
            "stateMutability": "view",
            "type": "function"
        },
        {
            "inputs": [],
            "name": "getTotalWaves",
            "outputs": [
                {
                    "internalType": "uint256",
                    "name": "",
                    "type": "uint256"
                }
            ],
            "stateMutability": "view",
            "type": "function"
        },
        {
            "inputs": [
                {
                    "internalType": "string",
                    "name": "_message",
                    "type": "string"
                }
            ],
            "name": "wave",
            "outputs": [],
            "stateMutability": "nonpayable",
            "type": "function"
        }
    ],
    "bytecode": "0x60806040526200004f6040518060400160405280601981526020017f57652068617665206265656e20636f6e737472756374656421000000000000008152506200005560201b620005961760201c565b620001e9565b620000f5816040516024016200006c919062000162565b6040516020818303038152906040527f41304fac000000000000000000000000000000000000000000000000000000007bffffffffffffffffffffffffffffffffffffffffffffffffffffffff19166020820180517bffffffffffffffffffffffffffffffffffffffffffffffffffffffff8381831617835250505050620000f860201b60201c565b50565b60008151905060006a636f6e736f6c652e6c6f679050602083016000808483855afa5050505050565b60006200012e8262000186565b6200013a818562000191565b93506200014c818560208601620001a2565b6200015781620001d8565b840191505092915050565b600060208201905081810360008301526200017e818462000121565b905092915050565b600081519050919050565b600082825260208201905092915050565b60005b83811015620001c2578082015181840152602081019050620001a5565b83811115620001d2576000848401525b50505050565b6000601f19601f8301169050919050565b61108380620001f96000396000f3fe608060405234801561001057600080fd5b50600436106100575760003560e01c80633d370b4e1461005c578063449d46c01461006657806355a3b2c1146100825780639a2cdc08146100b2578063bd43a908146100d0575b600080fd5b6100646100ee565b005b610080600480360381019061007b919061097b565b61016e565b005b61009c60048036038101906100979190610952565b6103e2565b6040516100a99190610d75565b60405180910390f35b6100ba6103fa565b6040516100c79190610d75565b60405180910390f35b6100d8610445565b6040516100e59190610c3e565b60405180910390f35b61016c6040518060400160405280600f81526020017f2573206861732025642077617665730000000000000000000000000000000000815250336000803373ffffffffffffffffffffffffffffffffffffffff1673ffffffffffffffffffffffffffffffffffffffff1681526020019081526020016000205461062f565b565b60018060008282546101809190610e92565b925050819055506101c76040518060400160405280601681526020017f257320776176656420772f206d6573736167652025730000000000000000000081525033836106ce565b600260405180606001604052803373ffffffffffffffffffffffffffffffffffffffff16815260200183815260200142815250908060018154018082558091505060019003906000526020600020906003020160009091909190915060008201518160000160006101000a81548173ffffffffffffffffffffffffffffffffffffffff021916908373ffffffffffffffffffffffffffffffffffffffff1602179055506020820151816001019080519060200190610286929190610832565b506040820151816002015550503373ffffffffffffffffffffffffffffffffffffffff167f5f7e16dc676677766a70e9c5628aa6c54ddb8b6e5188e2ae1e1f17f1ffbea71642836040516102db929190610d90565b60405180910390a26000655af3107a4000905047811115610331576040517f08c379a000000000000000000000000000000000000000000000000000000000815260040161032890610d35565b60405180910390fd5b60003373ffffffffffffffffffffffffffffffffffffffff168260405161035790610c29565b60006040518083038185875af1925050503d8060008114610394576040519150601f19603f3d011682016040523d82523d6000602084013e610399565b606091505b50509050806103dd576040517f08c379a00000000000000000000000000000000000000000000000000000000081526004016103d490610d55565b60405180910390fd5b505050565b60006020528060005260406000206000915090505481565b600061043d6040518060400160405280601781526020017f5765206861766520256420746f74616c2077617665732100000000000000000081525060015461076d565b600154905090565b60606002805480602002602001604051908101604052809291908181526020016000905b8282101561058d57838290600052602060002090600302016040518060600160405290816000820160009054906101000a900473ffffffffffffffffffffffffffffffffffffffff1673ffffffffffffffffffffffffffffffffffffffff1673ffffffffffffffffffffffffffffffffffffffff1681526020016001820180546104f290610f66565b80601f016020809104026020016040519081016040528092919081815260200182805461051e90610f66565b801561056b5780601f106105405761010080835404028352916020019161056b565b820191906000526020600020905b81548152906001019060200180831161054e57829003601f168201915b5050505050815260200160028201548152505081526020019060010190610469565b50505050905090565b61062c816040516024016105aa9190610c60565b6040516020818303038152906040527f41304fac000000000000000000000000000000000000000000000000000000007bffffffffffffffffffffffffffffffffffffffffffffffffffffffff19166020820180517bffffffffffffffffffffffffffffffffffffffffffffffffffffffff8381831617835250505050610809565b50565b6106c983838360405160240161064793929190610cc7565b6040516020818303038152906040527f07c81217000000000000000000000000000000000000000000000000000000007bffffffffffffffffffffffffffffffffffffffffffffffffffffffff19166020820180517bffffffffffffffffffffffffffffffffffffffffffffffffffffffff8381831617835250505050610809565b505050565b6107688383836040516024016106e693929190610c82565b6040516020818303038152906040527fe0e9ad4f000000000000000000000000000000000000000000000000000000007bffffffffffffffffffffffffffffffffffffffffffffffffffffffff19166020820180517bffffffffffffffffffffffffffffffffffffffffffffffffffffffff8381831617835250505050610809565b505050565b6108058282604051602401610783929190610d05565b6040516020818303038152906040527f9710a9d0000000000000000000000000000000000000000000000000000000007bffffffffffffffffffffffffffffffffffffffffffffffffffffffff19166020820180517bffffffffffffffffffffffffffffffffffffffffffffffffffffffff8381831617835250505050610809565b5050565b60008151905060006a636f6e736f6c652e6c6f679050602083016000808483855afa5050505050565b82805461083e90610f66565b90600052602060002090601f01602090048101928261086057600085556108a7565b82601f1061087957805160ff19168380011785556108a7565b828001600101855582156108a7579182015b828111156108a657825182559160200191906001019061088b565b5b5090506108b491906108b8565b5090565b5b808211156108d15760008160009055506001016108b9565b5090565b60006108e86108e384610df1565b610dc0565b90508281526020810184848401111561090057600080fd5b61090b848285610f24565b509392505050565b60008135905061092281611036565b92915050565b600082601f83011261093957600080fd5b81356109498482602086016108d5565b91505092915050565b60006020828403121561096457600080fd5b600061097284828501610913565b91505092915050565b60006020828403121561098d57600080fd5b600082013567ffffffffffffffff8111156109a757600080fd5b6109b384828501610928565b91505092915050565b60006109c88383610bbb565b905092915050565b6109d981610ee8565b82525050565b6109e881610ee8565b82525050565b60006109f982610e31565b610a038185610e54565b935083602082028501610a1585610e21565b8060005b85811015610a515784840389528151610a3285826109bc565b9450610a3d83610e47565b925060208a01995050600181019050610a19565b50829750879550505050505092915050565b6000610a6e82610e3c565b610a788185610e70565b9350610a88818560208601610f33565b610a9181611025565b840191505092915050565b6000610aa782610e3c565b610ab18185610e81565b9350610ac1818560208601610f33565b610aca81611025565b840191505092915050565b6000610ae2603483610e81565b91507f547279696e6720746f207769746864726177206d6f7265206d6f6e657920746860008301527f616e2074686520636f6e7472616374206861732e0000000000000000000000006020830152604082019050919050565b6000610b48602783610e81565b91507f4661696c656420746f207769746864726177206d6f6e65792066726f6d20636f60008301527f6e74726163742e000000000000000000000000000000000000000000000000006020830152604082019050919050565b6000610bae600083610e65565b9150600082019050919050565b6000606083016000830151610bd360008601826109d0565b5060208301518482036020860152610beb8282610a63565b9150506040830151610c006040860182610c0b565b508091505092915050565b610c1481610f1a565b82525050565b610c2381610f1a565b82525050565b6000610c3482610ba1565b9150819050919050565b60006020820190508181036000830152610c5881846109ee565b905092915050565b60006020820190508181036000830152610c7a8184610a9c565b905092915050565b60006060820190508181036000830152610c9c8186610a9c565b9050610cab60208301856109df565b8181036040830152610cbd8184610a9c565b9050949350505050565b60006060820190508181036000830152610ce18186610a9c565b9050610cf060208301856109df565b610cfd6040830184610c1a565b949350505050565b60006040820190508181036000830152610d1f8185610a9c565b9050610d2e6020830184610c1a565b9392505050565b60006020820190508181036000830152610d4e81610ad5565b9050919050565b60006020820190508181036000830152610d6e81610b3b565b9050919050565b6000602082019050610d8a6000830184610c1a565b92915050565b6000604082019050610da56000830185610c1a565b8181036020830152610db78184610a9c565b90509392505050565b6000604051905081810181811067ffffffffffffffff82111715610de757610de6610ff6565b5b8060405250919050565b600067ffffffffffffffff821115610e0c57610e0b610ff6565b5b601f19601f8301169050602081019050919050565b6000819050602082019050919050565b600081519050919050565b600081519050919050565b6000602082019050919050565b600082825260208201905092915050565b600081905092915050565b600082825260208201905092915050565b600082825260208201905092915050565b6000610e9d82610f1a565b9150610ea883610f1a565b9250827fffffffffffffffffffffffffffffffffffffffffffffffffffffffffffffffff03821115610edd57610edc610f98565b5b828201905092915050565b6000610ef382610efa565b9050919050565b600073ffffffffffffffffffffffffffffffffffffffff82169050919050565b6000819050919050565b82818337600083830152505050565b60005b83811015610f51578082015181840152602081019050610f36565b83811115610f60576000848401525b50505050565b60006002820490506001821680610f7e57607f821691505b60208210811415610f9257610f91610fc7565b5b50919050565b7f4e487b7100000000000000000000000000000000000000000000000000000000600052601160045260246000fd5b7f4e487b7100000000000000000000000000000000000000000000000000000000600052602260045260246000fd5b7f4e487b7100000000000000000000000000000000000000000000000000000000600052604160045260246000fd5b6000601f19601f8301169050919050565b61103f81610ee8565b811461104a57600080fd5b5056fea2646970667358221220e18141bea4cc838ab389f86d7f9ac225d533bef958973b564f9135ffa0adff3364736f6c63430008000033",
    "linkReferences": {},
    "deployedLinkReferences": {}
}