{
    "_format": "hh-sol-artifact-1",
    "contractName": "WavePortal",
    "sourceName": "contracts/WavePortal.sol",
    "abi": [
        {
            "inputs": [],
            "stateMutability": "nonpayable",
            "type": "constructor"
        },
        {
            "anonymous": false,
            "inputs": [
                {
                    "indexed": true,
                    "internalType": "address",
                    "name": "from",
                    "type": "address"
                },
                {
                    "indexed": false,
                    "internalType": "uint256",
                    "name": "timestamp",
                    "type": "uint256"
                },
                {
                    "indexed": false,
                    "internalType": "string",
                    "name": "message",
                    "type": "string"
                }
            ],
            "name": "NewWave",
            "type": "event"
        },
        {
            "inputs": [
                {
                    "internalType": "address",
                    "name": "",
                    "type": "address"
                }
            ],
            "name": "amounts",
            "outputs": [
                {
                    "internalType": "uint256",
                    "name": "",
                    "type": "uint256"
                }
            ],
            "stateMutability": "view",
            "type": "function"
        },
        {
            "inputs": [],
            "name": "getAllWaves",
            "outputs": [
                {
                    "components": [
                        {
                            "internalType": "address",
                            "name": "waver",
                            "type": "address"
                        },
                        {
                            "internalType": "string",
                            "name": "message",
                            "type": "string"
                        },
                        {
                            "internalType": "uint256",
                            "name": "timestamp",
                            "type": "uint256"
                        }
                    ],
                    "internalType": "struct WavePortal.Wave[]",
                    "name": "",
                    "type": "tuple[]"
                }
            ],
            "stateMutability": "view",
            "type": "function"
        },
        {
            "inputs": [],
            "name": "getAmounts",
            "outputs": [],
            "stateMutability": "view",
            "type": "function"
        },
        {
            "inputs": [],
            "name": "getTotalWaves",
            "outputs": [
                {
                    "internalType": "uint256",
                    "name": "",
                    "type": "uint256"
                }
            ],
            "stateMutability": "view",
            "type": "function"
        },
        {
            "inputs": [
                {
                    "internalType": "string",
                    "name": "_message",
                    "type": "string"
                }
            ],
            "name": "wave",
            "outputs": [],
            "stateMutability": "nonpayable",
            "type": "function"
        }
    ],
    "bytecode": "0x60806040523480156200001157600080fd5b50620000416040518060600160405280602281526020016200102c602291396200004760201b6200049a1760201c565b620001db565b620000e7816040516024016200005e919062000154565b6040516020818303038152906040527f41304fac000000000000000000000000000000000000000000000000000000007bffffffffffffffffffffffffffffffffffffffffffffffffffffffff19166020820180517bffffffffffffffffffffffffffffffffffffffffffffffffffffffff8381831617835250505050620000ea60201b60201c565b50565b60008151905060006a636f6e736f6c652e6c6f679050602083016000808483855afa5050505050565b6000620001208262000178565b6200012c818562000183565b93506200013e81856020860162000194565b6200014981620001ca565b840191505092915050565b6000602082019050818103600083015262000170818462000113565b905092915050565b600081519050919050565b600082825260208201905092915050565b60005b83811015620001b457808201518184015260208101905062000197565b83811115620001c4576000848401525b50505050565b6000601f19601f8301169050919050565b610e4180620001eb6000396000f3fe608060405234801561001057600080fd5b50600436106100575760003560e01c80633d370b4e1461005c578063449d46c01461006657806355a3b2c1146100825780639a2cdc08146100b2578063bd43a908146100d0575b600080fd5b6100646100ee565b005b610080600480360381019061007b919061087f565b61016e565b005b61009c60048036038101906100979190610856565b6102e6565b6040516100a99190610b3e565b60405180910390f35b6100ba6102fe565b6040516100c79190610b3e565b60405180910390f35b6100d8610349565b6040516100e59190610a47565b60405180910390f35b61016c6040518060400160405280600f81526020017f2573206861732025642077617665730000000000000000000000000000000000815250336000803373ffffffffffffffffffffffffffffffffffffffff1673ffffffffffffffffffffffffffffffffffffffff16815260200190815260200160002054610533565b565b60018060008282546101809190610c50565b925050819055506101c76040518060400160405280601681526020017f257320776176656420772f206d6573736167652025730000000000000000000081525033836105d2565b600260405180606001604052803373ffffffffffffffffffffffffffffffffffffffff16815260200183815260200142815250908060018154018082558091505060019003906000526020600020906003020160009091909190915060008201518160000160006101000a81548173ffffffffffffffffffffffffffffffffffffffff021916908373ffffffffffffffffffffffffffffffffffffffff1602179055506020820151816001019080519060200190610286929190610736565b506040820151816002015550503373ffffffffffffffffffffffffffffffffffffffff167f5f7e16dc676677766a70e9c5628aa6c54ddb8b6e5188e2ae1e1f17f1ffbea71642836040516102db929190610b59565b60405180910390a250565b60006020528060005260406000206000915090505481565b60006103416040518060400160405280601781526020017f5765206861766520256420746f74616c20776176657321000000000000000000815250600154610671565b600154905090565b60606002805480602002602001604051908101604052809291908181526020016000905b8282101561049157838290600052602060002090600302016040518060600160405290816000820160009054906101000a900473ffffffffffffffffffffffffffffffffffffffff1673ffffffffffffffffffffffffffffffffffffffff1673ffffffffffffffffffffffffffffffffffffffff1681526020016001820180546103f690610d24565b80601f016020809104026020016040519081016040528092919081815260200182805461042290610d24565b801561046f5780601f106104445761010080835404028352916020019161046f565b820191906000526020600020905b81548152906001019060200180831161045257829003601f168201915b505050505081526020016002820154815250508152602001906001019061036d565b50505050905090565b610530816040516024016104ae9190610a69565b6040516020818303038152906040527f41304fac000000000000000000000000000000000000000000000000000000007bffffffffffffffffffffffffffffffffffffffffffffffffffffffff19166020820180517bffffffffffffffffffffffffffffffffffffffffffffffffffffffff838183161783525050505061070d565b50565b6105cd83838360405160240161054b93929190610ad0565b6040516020818303038152906040527f07c81217000000000000000000000000000000000000000000000000000000007bffffffffffffffffffffffffffffffffffffffffffffffffffffffff19166020820180517bffffffffffffffffffffffffffffffffffffffffffffffffffffffff838183161783525050505061070d565b505050565b61066c8383836040516024016105ea93929190610a8b565b6040516020818303038152906040527fe0e9ad4f000000000000000000000000000000000000000000000000000000007bffffffffffffffffffffffffffffffffffffffffffffffffffffffff19166020820180517bffffffffffffffffffffffffffffffffffffffffffffffffffffffff838183161783525050505061070d565b505050565b6107098282604051602401610687929190610b0e565b6040516020818303038152906040527f9710a9d0000000000000000000000000000000000000000000000000000000007bffffffffffffffffffffffffffffffffffffffffffffffffffffffff19166020820180517bffffffffffffffffffffffffffffffffffffffffffffffffffffffff838183161783525050505061070d565b5050565b60008151905060006a636f6e736f6c652e6c6f679050602083016000808483855afa5050505050565b82805461074290610d24565b90600052602060002090601f01602090048101928261076457600085556107ab565b82601f1061077d57805160ff19168380011785556107ab565b828001600101855582156107ab579182015b828111156107aa57825182559160200191906001019061078f565b5b5090506107b891906107bc565b5090565b5b808211156107d55760008160009055506001016107bd565b5090565b60006107ec6107e784610bba565b610b89565b90508281526020810184848401111561080457600080fd5b61080f848285610ce2565b509392505050565b60008135905061082681610df4565b92915050565b600082601f83011261083d57600080fd5b813561084d8482602086016107d9565b91505092915050565b60006020828403121561086857600080fd5b600061087684828501610817565b91505092915050565b60006020828403121561089157600080fd5b600082013567ffffffffffffffff8111156108ab57600080fd5b6108b78482850161082c565b91505092915050565b60006108cc83836109d9565b905092915050565b6108dd81610ca6565b82525050565b6108ec81610ca6565b82525050565b60006108fd82610bfa565b6109078185610c1d565b93508360208202850161091985610bea565b8060005b85811015610955578484038952815161093685826108c0565b945061094183610c10565b925060208a0199505060018101905061091d565b50829750879550505050505092915050565b600061097282610c05565b61097c8185610c2e565b935061098c818560208601610cf1565b61099581610de3565b840191505092915050565b60006109ab82610c05565b6109b58185610c3f565b93506109c5818560208601610cf1565b6109ce81610de3565b840191505092915050565b60006060830160008301516109f160008601826108d4565b5060208301518482036020860152610a098282610967565b9150506040830151610a1e6040860182610a29565b508091505092915050565b610a3281610cd8565b82525050565b610a4181610cd8565b82525050565b60006020820190508181036000830152610a6181846108f2565b905092915050565b60006020820190508181036000830152610a8381846109a0565b905092915050565b60006060820190508181036000830152610aa581866109a0565b9050610ab460208301856108e3565b8181036040830152610ac681846109a0565b9050949350505050565b60006060820190508181036000830152610aea81866109a0565b9050610af960208301856108e3565b610b066040830184610a38565b949350505050565b60006040820190508181036000830152610b2881856109a0565b9050610b376020830184610a38565b9392505050565b6000602082019050610b536000830184610a38565b92915050565b6000604082019050610b6e6000830185610a38565b8181036020830152610b8081846109a0565b90509392505050565b6000604051905081810181811067ffffffffffffffff82111715610bb057610baf610db4565b5b8060405250919050565b600067ffffffffffffffff821115610bd557610bd4610db4565b5b601f19601f8301169050602081019050919050565b6000819050602082019050919050565b600081519050919050565b600081519050919050565b6000602082019050919050565b600082825260208201905092915050565b600082825260208201905092915050565b600082825260208201905092915050565b6000610c5b82610cd8565b9150610c6683610cd8565b9250827fffffffffffffffffffffffffffffffffffffffffffffffffffffffffffffffff03821115610c9b57610c9a610d56565b5b828201905092915050565b6000610cb182610cb8565b9050919050565b600073ffffffffffffffffffffffffffffffffffffffff82169050919050565b6000819050919050565b82818337600083830152505050565b60005b83811015610d0f578082015181840152602081019050610cf4565b83811115610d1e576000848401525b50505050565b60006002820490506001821680610d3c57607f821691505b60208210811415610d5057610d4f610d85565b5b50919050565b7f4e487b7100000000000000000000000000000000000000000000000000000000600052601160045260246000fd5b7f4e487b7100000000000000000000000000000000000000000000000000000000600052602260045260246000fd5b7f4e487b7100000000000000000000000000000000000000000000000000000000600052604160045260246000fd5b6000601f19601f8301169050919050565b610dfd81610ca6565b8114610e0857600080fd5b5056fea2646970667358221220b1b05964051b10f0f6ce568505fd4050eabc70da8927eead019eb7e71bb0ec9a64736f6c6343000800003353616c656d20616c656d2c207468697320697320736d61727420636f6e7472616374",
    "linkReferences": {},
    "deployedLinkReferences": {}
}