{
    "_format": "hh-sol-artifact-1",
    "contractName": "WavePortal",
    "sourceName": "contracts/WavePortal.sol",
    "abi": [
        {
            "inputs": [],
            "stateMutability": "nonpayable",
            "type": "constructor"
        },
        {
            "inputs": [
                {
                    "internalType": "address",
                    "name": "",
                    "type": "address"
                }
            ],
            "name": "amounts",
            "outputs": [
                {
                    "internalType": "uint256",
                    "name": "",
                    "type": "uint256"
                }
            ],
            "stateMutability": "view",
            "type": "function"
        },
        {
            "inputs": [],
            "name": "getAmounts",
            "outputs": [],
            "stateMutability": "view",
            "type": "function"
        },
        {
            "inputs": [],
            "name": "getTotalWaves",
            "outputs": [
                {
                    "internalType": "uint256",
                    "name": "",
                    "type": "uint256"
                }
            ],
            "stateMutability": "view",
            "type": "function"
        },
        {
            "inputs": [],
            "name": "wave",
            "outputs": [],
            "stateMutability": "nonpayable",
            "type": "function"
        }
    ],
    "bytecode": "0x608060405234801561001057600080fd5b5061003c6040518060600160405280602281526020016109906022913961004160201b6102461760201c565b6101c4565b6100dd816040516024016100559190610142565b6040516020818303038152906040527f41304fac000000000000000000000000000000000000000000000000000000007bffffffffffffffffffffffffffffffffffffffffffffffffffffffff19166020820180517bffffffffffffffffffffffffffffffffffffffffffffffffffffffff83818316178352505050506100e060201b60201c565b50565b60008151905060006a636f6e736f6c652e6c6f679050602083016000808483855afa5050505050565b600061011482610164565b61011e818561016f565b935061012e818560208601610180565b610137816101b3565b840191505092915050565b6000602082019050818103600083015261015c8184610109565b905092915050565b600081519050919050565b600082825260208201905092915050565b60005b8381101561019e578082015181840152602081019050610183565b838111156101ad576000848401525b50505050565b6000601f19601f8301169050919050565b6107bd806101d36000396000f3fe608060405234801561001057600080fd5b506004361061004c5760003560e01c80633d370b4e1461005157806355a3b2c11461005b5780636fe15b441461008b5780639a2cdc0814610095575b600080fd5b6100596100b3565b005b610075600480360381019061007091906104f4565b610133565b6040516100829190610634565b60405180910390f35b61009361014b565b005b61009d6101fb565b6040516100aa9190610634565b60405180910390f35b6101316040518060400160405280600f81526020017f2573206861732025642077617665730000000000000000000000000000000000815250336000803373ffffffffffffffffffffffffffffffffffffffff1673ffffffffffffffffffffffffffffffffffffffff168152602001908152602001600020546102df565b565b60006020528060005260406000206000915090505481565b600180600082825461015d919061066b565b925050819055506101a36040518060400160405280600d81526020017f25732068617320776176656421000000000000000000000000000000000000008152503361037e565b60016000803373ffffffffffffffffffffffffffffffffffffffff1673ffffffffffffffffffffffffffffffffffffffff16815260200190815260200160002060008282546101f2919061066b565b92505081905550565b600061023e6040518060400160405280601781526020017f5765206861766520256420746f74616c2077617665732100000000000000000081525060015461041a565b600154905090565b6102dc8160405160240161025a9190610574565b6040516020818303038152906040527f41304fac000000000000000000000000000000000000000000000000000000007bffffffffffffffffffffffffffffffffffffffffffffffffffffffff19166020820180517bffffffffffffffffffffffffffffffffffffffffffffffffffffffff83818316178352505050506104b6565b50565b6103798383836040516024016102f7939291906105c6565b6040516020818303038152906040527f07c81217000000000000000000000000000000000000000000000000000000007bffffffffffffffffffffffffffffffffffffffffffffffffffffffff19166020820180517bffffffffffffffffffffffffffffffffffffffffffffffffffffffff83818316178352505050506104b6565b505050565b6104168282604051602401610394929190610596565b6040516020818303038152906040527f319af333000000000000000000000000000000000000000000000000000000007bffffffffffffffffffffffffffffffffffffffffffffffffffffffff19166020820180517bffffffffffffffffffffffffffffffffffffffffffffffffffffffff83818316178352505050506104b6565b5050565b6104b28282604051602401610430929190610604565b6040516020818303038152906040527f9710a9d0000000000000000000000000000000000000000000000000000000007bffffffffffffffffffffffffffffffffffffffffffffffffffffffff19166020820180517bffffffffffffffffffffffffffffffffffffffffffffffffffffffff83818316178352505050506104b6565b5050565b60008151905060006a636f6e736f6c652e6c6f679050602083016000808483855afa5050505050565b6000813590506104ee81610770565b92915050565b60006020828403121561050657600080fd5b6000610514848285016104df565b91505092915050565b610526816106c1565b82525050565b60006105378261064f565b610541818561065a565b93506105518185602086016106fd565b61055a8161075f565b840191505092915050565b61056e816106f3565b82525050565b6000602082019050818103600083015261058e818461052c565b905092915050565b600060408201905081810360008301526105b0818561052c565b90506105bf602083018461051d565b9392505050565b600060608201905081810360008301526105e0818661052c565b90506105ef602083018561051d565b6105fc6040830184610565565b949350505050565b6000604082019050818103600083015261061e818561052c565b905061062d6020830184610565565b9392505050565b60006020820190506106496000830184610565565b92915050565b600081519050919050565b600082825260208201905092915050565b6000610676826106f3565b9150610681836106f3565b9250827fffffffffffffffffffffffffffffffffffffffffffffffffffffffffffffffff038211156106b6576106b5610730565b5b828201905092915050565b60006106cc826106d3565b9050919050565b600073ffffffffffffffffffffffffffffffffffffffff82169050919050565b6000819050919050565b60005b8381101561071b578082015181840152602081019050610700565b8381111561072a576000848401525b50505050565b7f4e487b7100000000000000000000000000000000000000000000000000000000600052601160045260246000fd5b6000601f19601f8301169050919050565b610779816106c1565b811461078457600080fd5b5056fea2646970667358221220263777e4abe76479c18fd2529334566d99444794fc3847a8396b42f1c2ec063564736f6c6343000800003353616c656d20616c656d2c207468697320697320736d61727420636f6e7472616374",
    "linkReferences": {},
    "deployedLinkReferences": {}
}